:200000000C9403010C9430010C9430010C9430010C9430010C9430010C9430010C94300185
:200020000C9430010C9430010C9430010C9430010C9430010C9430010C9430010C94300138
:200040000C9430010C943D100C9430010C9430010C9430010C9430010C9430010C946B10B2
:200060000C9471030C9430010C9430010C9430010C9430010C9430010C9430010C943001B5
:200080000C940F100C9430010C9430010C9430010C9430010C9430010C9430010C943001EA
:2000A0000C9430010C9430010C94E10F0C9430010C9430010C9430010C9430010C94B30F68
:2000C0000C9430010C9430010C9430010C9430010C9430010C9430010C9430010C94300198
:2000E0000C94300100002100240027002A002D003000330001010000040107010A010000EF
:200100002200250028002B002E003100340002010000050108010B0100002000230026002B
:2001200029002C002F003200000100000301060109010505050507050808080802020202AB
:200140000A0A08080404040401010101010101010303030303030303040707070C0C0C0C02
:200160000C0C0C0C0202020206060606060606060B0B0B0B0B0B0B0B01021020200808104C
:20018000204010204080020102010804020101020408102040808040201008040201800478
:2001A000020180402010080402010804020101020408102040800102040810204080000030
:2001C000090A02080B0C0D07060304010000000000000000000000000000000000000000C9
:2001E0000000000000000000000011100F00000000000000000000000000000000000000CF
:2002000000000000A80311241FBECFEFD1E2DEBFCDBF00E00CBF12E0A0E0B2E0ECEBFAE225
:2002200000E00BBF02C007900D92AA33B107D9F71BBE17E0AAE3B2E001C01D92A33CB107C1
:20024000E1F712E0C6E0D2E004C02297FE010E945815C430D107C9F70E9454120C945C154C
:200260000C940000CF93DF93EC01888190E080509E4F2981821B91099170841795071CF4BE
:2002800021E030E019C020E030E011C099818881891759F0DB01A20FB31FFE01E90FF11D23
:2002A00083818C9389818F5F89832F5F3F4F2417350764F320E030E0C901DF91CF910895E6
:2002C000FC012181808190E080509E4F821B91099170861797071CF421E030E004C0260FC4
:2002E000218320E030E0C9010895DC014C91E42FF0E09F012F5F3F4F11968C91119790E0AE
:200300002817390719F421E030E007C0EA0FFB1F63834F5F4C9320E030E0C9010895CF921B
:20032000DF92EF92FF920F931F93CF93DF938C016B017A01FC01808190E080509E4F2181D1
:20034000821B9109917020E032E0241B350B821793071CF021E030E010C0C0E0D0E008C09C
:20036000F601EC0FFD1FC80160810E9475012196CE15DF05ACF320E030E0C901DF91CF91E6
:200380001F910F91FF90EF90DF90CF90089580917406909175068130910509F182309105E4
:2003A00019F0892B61F13EC020917006309171068EB5F901E05CF94F80839EB58091720631
:2003C000892780937206E0910402F0910502E85AF94F80818EBD2731310521F51EC08EB548
:2003E000E0917006F0917106E05CF94F80839EB5809172068927809372061EBC13C0E09162
:200400000402F0910502E85AF94F80818EBD8091700690917106479729F48EB59091730681
:2004200089278EBD8091700690917106019690937106809370068091040290910502019612
:2004400090930502809304020895E0910202F091030250814181242F30E0852F90E0821B0A
:20046000930B9170489714F430E00AC0541711F480E003C0E20FF31F8381382F307F3260DA
:20048000E0910002F0910102808190E080509E4F2181821B91099170885E91400CF0346016
:2004A000832F089510927306809174069091750601970297F0F48EB5E0917006F091710674
:2004C000E05CF94F80838EB590917206892780937206882359F4809100029091010260E40B
:2004E00076E048E150E00E948F0103C088E0809373060E94250290917306982B90937306A2
:200500009EBD109271061092700681E090E0909305028093040208951092720680917306FA
:200520000EB403FE31C080917406909175068230910511F0892BD9F430915806832F826063
:2005400080937306E0910002F0910102808190E080509E4F2181821B91099170885E914059
:200560001CF03660309373068091730613C081E090E0909305028093040210927106109271
:2005800070060E9425024CC083FF10C00E942502809373068EBD81E090E090930502809310
:2005A000040210927106109270060895982F96708EB5807FC9F5923051F0933018F499230C
:2005C00069F10895943051F1963009F089C0809102029091030268E576E048E150E00E943D
:2005E00032012091040230910502F901E85AF94F80818EBD809170069091710601969093A0
:200600007106809370062F5F3F4F3093050220930402109275061092740608950E9425029C
:20062000809373068EBD0895923061F0933018F49923C1F10895943009F44DC0963009F0CC
:200640004FC049C08EB5E0917006F0917106E05CF94F80838EB580937206809102029091D5
:20066000030268E576E048E150E00E9432012091040230910502F901E85AF94F80818EBD55
:200680008091700690917106019690937106809370062F5F3F4F309305022093040282E080
:2006A00090E014C080917006909171062EB5FC01E05CF94F20832EB5209372061EBC019651
:2006C000909371068093700681E090E0909375068093740608950E942502809373068EBDBE
:2006E00008951F920F920FB60F920BB60F9211242F933F934F935F936F937F938F939F933E
:20070000AF93BF93EF93FF938091700690917106009719F40E948C0208C00197469718F4F5
:200720000E94C70102C00E945202FF91EF91BF91AF919F918F917F916F915F914F913F91F7
:200740002F910F900BBE0F900FBE0F901F901895AF92BF92CF92DF92EF92FF920F931F9340
:20076000CF93DF938DB79EB708970FB6F8949EBF0FBE8DBFEDB7FEB73196E0901002F09084
:2007800011020091120210911302A0901402B0901502C0901602D09017028091960690919F
:2007A0009706A0919806B0919906CDB7DEB789839A83AB83BC8315821482809120029091BD
:2007C0002102978386838AE996E06EE876E042E956E02AE836E00E94B60C8DB79EB708961A
:2007E0000FB6F8949EBF0FBE8DBF81ED96E00E94BD07CDB7DEB728970FB6F894DEBF0FBE55
:20080000CDBFEDB7FEB73196E0902202F09023020091240210912502A0902602B0902702B3
:20082000C0902802D090290280912A0290912B02A0912C02B0912D0289839A83AB83BC83C3
:200840001582148280913602909137029783868385EE96E06DED76E041EE56E029ED36E07B
:200860000E94B60C8DB79EB708960FB6F8949EBF0FBE8DBF8CE197E00E947D0D8FE197E01F
:200880000E947D0D82E297E00E947D0DDF91CF911F910F91FF90EF90DF90CF90BF90AF909B
:2008A0000895EF92FF920F931F938CB580648CBD8CB580688CBD249A1EBCE0910002F091C9
:2008C000010211821082E0910202F091030211821082109273061EBC81ED96E00E94350818
:2008E0008091180260E00E94571180912E0260E00E94571180912E020E942311E09030023F
:20090000F09031028E199F09AA2797FDA095BA2FBC01CD010E94B0136093DD067093DE06A5
:200920008093DF069093E0068091340290913502E80EF91E0027F7FC0095102FC801B7019B
:200940000E94B0136093D9067093DA068093DB069093DC06809118020E94231120911A02B6
:2009600030911B02821B930BAA2797FDA095BA2FBC01CD010E94B01360938E0670938F06CC
:20098000809390069093910660911E0270911F02882777FD8095982F0E94B01360938A06DA
:2009A00070938B0680938C0690938D0685EE96E061E070E00E94C1098AE996E061E070E0E8
:2009C0000E94C10960910A0270910B028CE197E00E94EB0E60910C0270910D028FE197E02B
:2009E0000E94EB0E60910E0270910F0282E297E00E94EB0E78941F910F91FF90EF900895CC
:200A000081ED96E00E94D9078111FFCF81ED96E00E94CF078111FFCF0895AF92BF92CF92C4
:200A2000DF92EF92FF920F931F93CF93DF9310928106C0910002D091010238812981E22FB7
:200A4000F0E0832F90E08E1B9F0B917048970CF4B2C1321741F0EC0FFD1F838180937606DA
:200A600089818F5F898380917606817F80937606813109F49BC1813409F098C19981888121
:200A8000891749F0FE01E90FF11D83818093770689818F5F898399818881891749F0FE01E5
:200AA000E90FF11D83818093780689818F5F89837091770660E02091780630E0622B732B6F
:200AC000882777FD8095982F0E94B01360930602709307028093080290930902998188813D
:200AE000891749F0FE01E90FF11D83818093790689818F5F898399818881891749F0FE0183
:200B0000E90FF11D838180937A0689818F5F89837091790660E020917A0630E0622B732B08
:200B2000882777FD8095982F0E94B0137B018C0160911A0270911B02882777FD8095982F1E
:200B40000E94B0139B01AC01C801B7010E94AC127B018C0160938A0670938B0680938C0641
:200B600090938D0660911C0270911D02882777FD8095982F0E94B0135B016C01C801B701E2
:200B8000A60195010E946014181644F4A0928A06B0928B06C0928C06D0928D0660911E021D
:200BA00070911F02882777FD8095982F0E94B0137B018C0160918A0670918B0680918C06F0
:200BC00090918D06A80197010E941113882344F4E0928A06F0928B0600938C0610938D0607
:200BE00099818881891749F0FE01E90FF11D838180937B0689818F5F898399818881891795
:200C000049F0FE01E90FF11D838180937C0689818F5F898370917B0660E020917C0630E0F4
:200C2000622B732B882777FD8095982F0E94B0137B018C016091300270913102882777FDA2
:200C40008095982F0E94B0139B01AC01C801B7010E94AC127B018C016093D9067093DA066B
:200C60008093DB069093DC066091320270913302882777FD8095982F0E94B0135B016C01F3
:200C8000C801B701A60195010E946014181644F4A092D906B092DA06C092DB06D092DC0670
:200CA0006091340270913502882777FD8095982F0E94B0137B018C016091D9067091DA06B7
:200CC0008091DB069091DC06A80197010E941113882344F4E092D906F092DA060093DB060E
:200CE0001093DC0699818881891749F0FE01E90FF11D838180937D0689818F5F89839981B6
:200D00008881891749F0FE01E90FF11D838180937E0689818F5F898370917D0660E02091D8
:200D20007E0630E0622B732B882777FD8095982F0E94B013609382067093830680938406EC
:200D40009093850699818881891749F0FE01E90FF11D838180937F0689818F5F898399812A
:200D60008881891749F0FE01E90FF11D83818093800689818F5F898370917F0660E0209174
:200D8000800630E0622B732B882777FD8095982F0E94B0136093860670938706809388067E
:200DA00090938906CE016DE070E003C0CE0167E170E00E94600100E010E0C0E0D0E08091B7
:200DC00018020E942311080F191F2196C032D105B1F7C80160E270E00E94F21420911A02DD
:200DE00030911B02621B730B882777FD8095982F0E94B01360938E0670938F0680939006EE
:200E0000909391068AE996E00E949A0B609192067091930680919406909195060E947D132C
:200E20009B01AC0181ED96E0B9010E94E3070E940005609106027091070280910802909159
:200E400009020E947D139B01AC018CE197E0B9010E94D30D6091820670918306809184064E
:200E6000909185060E947D139B01AC018FE197E0B9010E94D30D609186067091870680910C
:200E80008806909189060E947D139B01AC0182E297E0B9010E94D30D80912E020E9423116B
:200EA0002091300230913102821B930BAA2797FDA095BA2FBC01CD010E94B0136093DD06D7
:200EC0007093DE068093DF069093E00685EE96E00E94150AE090E106F090E2060091E30647
:200EE0001091E406C801B70120E030E040E050E00E94111318168CF0C801B70120E030E085
:200F000040EF51E40E94AC120E947D139B01AC0181ED96E0B9010E940C08E090E106F09067
:200F2000E2060091E3061091E406C801B70120E030E040E050E00E94601488238CF0C801DD
:200F4000B70120E030E040EF51E40E94AD120E947D139B01AC0181ED96E0B9010E940C0835
:200F60000E940005DF91CF911F910F91FF90EF90DF90CF90BF90AF900895FC0182E0808341
:200F800084E0818386E0828386E3838387E0848388E085838CE0868387E387830895FC01AE
:200FA00086810E94241220E0892B09F421E0822F0895FC0182810E94241220E0892B09F4C9
:200FC00021E0822F0895CF93DF93EC0177FD02C080E004C0709561957F4F81E091E0613972
:200FE000790714F060E971E070939D0060939C00882339F08C8160E00E94F1118D8161E090
:2010000006C08C8161E00E94F1118D8160E00E94F111DF91CF910895CF93DF93EC0177FD84
:2010200002C080E004C0709561957F4F81E091E06139790714F060E971E0709399006093E8
:201040009800882339F0888160E00E94F111898161E006C0888161E00E94F111898160E0EE
:201060000E94F111DF91CF9108950F931F938C01FC01808161E00E945711F801818161E0F9
:201080000E94571185E061E00E945711F801828160E00E945711F801838160E00E94571109
:2010A000F801848161E00E945711F801858161E00E94571183E061E00E945711F8018681EF
:2010C00060E00E945711F801878160E00E9457118AE88093900081E18093910080E991E086
:2010E00090939700809396001F910F9108952F923F924F925F926F927F928F929F92AF9297
:20110000BF92CF92DF92EF92FF920F931F93DF93CF9300D00F92CDB7DEB71C0149835A8322
:201120006B837C834801590126013701CB01BA0120E030E040E050E00E94111387FD8EC041
:20114000C501B40120E030E040E050E00E94111387FD84C0C701B60120E030E040E050E047
:201160000E94111387FD7AC089819A81AB81BC81F10180839183A283B383D10114968D925E
:201180009D92AD92BC921797C086D186E286F38664A575A5882777FD8095982F0E94B013E0
:2011A00020E030E04AE754E40E9415137B018C0189819A81AB81BC81F10184879587A6870F
:2011C000B787C501B401A80197010E9464145B016C01D10150966D937D938D939C93539731
:2011E000C301B201A80197010E9415137B018C01F101648B758B868B978B808D918D01978D
:2012000069F560E070E080E090E029813A814B815C810E94AC12D1011C966D937D938D93EE
:201220009C931F9760E070E080E090E0A60195010E94AC12F101608B718B828B938B60E088
:2012400070E080E090E0A80197010E94AC12D10154966D937D938D939C9357970F900F9086
:201260000F900F90CF91DF911F910F91FF90EF90DF90CF90BF90AF909F908F907F906F904A
:201280005F904F903F902F9008954F925F926F927F928F929F92AF92BF92CF92DF92EF923A
:2012A000FF920F931F93CF93DF93EC013A014B0178018901CB01BA01A80197010E94601420
:2012C00087FF4EC06EA67FA688AA99AAEAAAFBAA0CAB1DAB8EA9882309F442C04C8C5D8C72
:2012E000F201A080B180C280D380C601B501A80197010E946014181634F4F201E082F18223
:20130000028313830DC0C601B501A40193010E94111388232CF4F2016082718282829382BD
:20132000ACA0BDA0CEA0DFA0EAA8FBA80CA91DA9C601B501A80197010E946014181664F011
:20134000EEA4FFA408A919A9C601B501A80197010E941113882324F4ECA2FDA20EA31FA3FE
:20136000DF91CF911F910F91FF90EF90DF90CF90BF90AF909F908F907F906F905F904F90B9
:2013800008959F92AF92BF92CF92DF92EF92FF920F931F93CF93DF93EC0199246130710530
:2013A00011F4992493948EA991E08927981681F5EC8DFD8DE080F18002811381ECA2FDA2B0
:2013C0000EA31FA3EA8DFB8D80819181A281B38188A799A7AAA7BBA7AAA8BBA8CCA8DDA861
:2013E000C801B701A60195010E946014181664F0AEA4BFA4C8A8D9A8C801B701A601950133
:201400000E941113882324F4ACA2BDA2CEA2DFA29EAADF91CF911F910F91FF90EF90DF90C0
:20142000CF90BF90AF909F9008952F923F924F925F926F927F928F929F92AF92BF92CF9238
:20144000DF92EF92FF920F931F93DF93CF9300D000D0CDB7DEB79E838D83DC01D6968C9191
:20146000882309F44EC10E94B31069837A838B839C83ED81FE8180A191A1A2A1B3A12981B9
:201480003A814B815C81281B390B4A0B5B0B84A595A5AA2797FDA095BA2F281739074A07F0
:2014A0005B0708F42EC1028CF38DE02D2080318042805380AD81BE815E96ED91FC915F977C
:2014C0006081718182819381A20191010E94AC125B016C01ED81FE812089318942895389CD
:2014E0000E9464149B01AC01AD81BE8194966D917D918D919C9197970E94AD12ED81FE811F
:2015000064A375A386A397A3C601B50120E030E040EA50E40E9411138823A4F4C601B501D8
:2015200020E030E040EA50EC0E946014181654F480E090E0A0E0B0E0ED81FE8184A395A37D
:20154000A6A3B7A3C601B50120E030E048E452EC0E9411138823ACF4C601B50120E030E053
:2015600048E452E40E9460141816BCF580E090E0A0E0B0E0ED81FE8184A395A3A6A3B7A345
:201580002CC0AD81BE8194966D907D908D909C909797D296ED90FD900D911C91D597C40159
:2015A000B301A80197010E946014181684F0AD81BE819E96ED90FD900D911C91D197C4015B
:2015C000B301A80197010E941113882334F4ED81FE81E4A2F5A206A317A3C601B501AD8165
:2015E000BE811C962D913D914D915C911F970E946414ED81FE8124A135A146A157A10E94CA
:20160000AD127B018C01C201B101AD81BE8198962D913D914D915C919B970E94AC12ED819B
:20162000FE8124893589468957890E9464149B01AC01C801B7010E94AC127B018C01C601FD
:20164000B50120E030E040EA50E40E9411138823A4F4C601B50120E030E040EA50EC0E94C8
:201660006014181654F40F2EF0E0EF2EF0E0FF2EF0E00F2FF0E01F2FF02DAD81BE81D2963B
:20168000DC90D297D396CC90D397D496BC90D497D596AC90C801B7012D2D3C2D4B2D5A2D3B
:2016A0000E946014181684F0ED81FE81D6A4C7A4B0A8A1A8C801B7012D2D3C2D4B2D5A2DBC
:2016C0000E941113882334F48D2D9C2DAB2DBA2D7C018D01AD81BE815C96ED91FC915D97C6
:2016E000E082F18202831383FD0120A631A642A653A689819A81AB81BC8180A391A3A2A354
:20170000B3A326960FB6F894DEBF0FBECDBFCF91DF911F910F91FF90EF90DF90CF90BF9025
:20172000AF909F908F907F906F905F904F903F902F9008952F923F924F925F926F927F929F
:201740008F929F92AF92BF92CF92DF92EF92FF920F931F93DF93CF9300D000D0CDB7DEB7E0
:201760009E838D83DC01D6968C91882309F4E5C00E94B31069837A838B839C83ED81FE811D
:2017800080A191A1A2A1B3A129813A814B815C81281B390B4A0B5B0B84A595A5AA2797FD47
:2017A000A095BA2F281739074A075B0708F4C5C0028CF38DE02D2080318042805380AD8129
:2017C000BE815E96ED91FC915F976081718182819381A20191010E94AC123B014C01ED815F
:2017E000FE8120893189428953890E946414AD81BE8194962D913D914D915C9197970E9488
:20180000AD127B018C01ED81FE8164A375A386A397A3A2A8B3A8C4A8D5A8A60195010E9424
:201820006014181674F0ED81FE81A6A4B7A4C0A8D1A8C801B701A60195010E941113882300
:2018400044F4AD81BE819496AD92BD92CD92DC929797C401B301ED81FE812485358546859C
:2018600057850E946414AD81BE8194962D913D914D915C9197970E94AD127B018C01C20129
:20188000B101ED81FE8120A531A542A553A50E94AC12AD81BE8154962D913D914D915C9121
:2018A00057970E9464149B01AC01C801B7010E94AC127B018C01ED81FE81D2A8C3A8B4A8BF
:2018C000A5A82D2D3C2D4B2D5A2D0E9460141816BCF0AD81BE819E96DC909E979F96CC9036
:2018E0009F97D096BC90D097D196AC90C801B7012D2D3C2D4B2D5A2D0E941113882334F41A
:201900008D2D9C2DAB2DBA2D7C018D01AD81BE815C96ED91FC915D97E082F182028313832C
:20192000FD0120A631A642A653A689819A81AB81BC8180A391A3A2A3B3A326960FB6F8949E
:20194000DEBF0FBECDBFCF91DF911F910F91FF90EF90DF90CF90BF90AF909F908F907F90AA
:201960006F905F904F903F902F9008952F923F924F925F926F927F928F929F92AF92BF9215
:20198000CF92DF92EF92FF920F931F93DF93CF93CDB7DEB72A970FB6F894DEBF0FBECDBF1A
:2019A0004C017A8369835C834B833E832D8327013801AF82B886C986DA862CA03DA0EEA01D
:2019C000FFA0662777276E197F09882777FD8095982F0E94B0135B016C010027F7FC009552
:2019E000102FC801B7010E94B0138B019C01C401B601A5010E94450984E690E0F40195A77C
:201A000084A786A9882391F1808D918D2816390669F160E070E080E090E0248535854685AF
:201A200057850E94AC12F401648775878687978760E070E080E090E02089318942895389F9
:201A40000E94AC12F401608B718B828B938B60E070E080E090E024893589468957890E9403
:201A6000AC12F401648B758B868B978BF401318E208EC401B301A2010F81188529853A8579
:201A8000C8A0D9A0EAA0FBA00E9477080E94B310F40124A535A5442737FD4095542F621BAE
:201AA000730B840B950B60A371A382A393A316AA8B819C81958F848F89819A81938F828F8F
:201AC0008D819E81978F868F2A960FB6F894DEBF0FBECDBFCF91DF911F910F91FF90EF9069
:201AE000DF90CF90BF90AF909F908F907F906F905F904F903F902F900895FC0180912507FB
:201B0000803390F480838F5F80932507815090E0FC01EE0FFF1FE80FF91FEA5DF84F88EBF5
:201B20009BE09283818308958FEF80830895FC0120812033B8F58181992787FD909548E81D
:201B400050E0481B590B440F551F440F551F6417750784F08281992787FD909548E552E0CA
:201B6000481B590B440F551F440F551F641775070CF4AB0142505040CA01AA2797FDA095E6
:201B8000BA2F880F991FAA1FBB1F4FB7F89430E0F901EE0FFF1FE20FF31FEA5DF84F92830D
:201BA00081834FBF0895AF92BF92CF92DF92EF92FF920F931F93CF93DF93EC019B0182E0ED
:201BC000603278070CF048C077FF03C020E030E005C0653B710514F024EB30E000D00F9238
:201BE000B901882777FD8095982F2981332727FD3095E8E8AE2EB12CA21AB30AAA0CBB1CB0
:201C0000AA0CBB1CCC24B7FCC094DC2CEA81FF27E7FDF09528E532E02E1B3F0B220F331F09
:201C2000220F331F442737FD4095542FEDB7FEB7218332834383548320E030E040E050E07B
:201C400004EBE02EF12C012D112D0E9463129B010F900F900F900F90CE01B9010E94970D00
:201C6000DF91CF911F910F91FF90EF90DF90CF90BF90AF900895CF92DF92EF92FF921F93A7
:201C8000CF93DF93EC01162F7A0169018881803308F093C0862F61E00E945711888190E0D9
:201CA000FC01EE0FFF1FE80FF91FEA5DF84F1F738081807C812B808380E292E08E199F090E
:201CC00064E070E00E94F214698380E699E08C199D0964E070E00E94F2146A83A8818A2FA7
:201CE0006CE00E94E614682F70E0AB01440F551F460F571F440F551F440F551F20E030E039
:201D0000C901840F951FFC01EE0FFF1FE80FF91FEA5DF84F808186FD44C02F5F3F4F2C30FD
:201D2000310571F753C01092800082E0809381001092850010928400B19A80916F008260E0
:201D400080936F002EC06230710569F41092900082E080939100109295001092940088BBC6
:201D6000809371001EC06330710569F41092A00082E08093A1001092A5001092A40089BB72
:201D8000809372000EC0672B61F41092200182E08093210110922501109224018ABB8093C8
:201DA00073008A2F90E0FC01EE0FFF1FE80FF91FEA5DF84F8081806480838881DF91CF9111
:201DC0001F91FF90EF90DF90CF9008956130710509F0B9CFA8CF40E252E020E639E00E94C6
:201DE0003B0E0895EF92FF920F931F93CF93DF938B017A01EC01DC01AA54B84F8C9187FF4A
:201E000004C0FB011182108237C0AE01440F551F4C0F5D1F440F551F440F551F2C913327F4
:201E200027FD3095240F351F8091250790E02817390714F58C91992787FD9095840F951F30
:201E4000FC01EE0FFF1FE80FF91FEA5DF84F808186FF12C08C91992787FD9095840F951FA8
:201E6000FC01EE0FFF1FE80FF91FEA5DF84F80818F7360E00E94F111DE01AA54B84F8C91C5
:201E80008F5F8C93AE01440F551F4C0F5D1F440F551F440F551F2C91332727FD3095240F27
:201EA000351F8091250790E0281739070CF04DC08C918C300CF049C0F801208131818C9152
:201EC000992787FD9095840F951FFC01EE0FFF1FE80FF91FEA5DF84F81819281280F391FF9
:201EE000F701318320838C91992787FD9095840F951FFC01EE0FFF1FE80FF91FEA5DF84F11
:201F0000808186FF29C08C91992787FD9095840F951FFC01EE0FFF1FE80FF91FEA5DF84FD0
:201F200080818F7361E00E94F11116C080E49CE904C0F801808191810496F7019183808381
:201F4000CA54D84F8FEF888307C0F8018081918184549C4958F3EDCFDF91CF911F910F91FC
:201F6000FF90EF9008951F920F920FB60F920BB60F9211242F933F934F935F936F937F93EB
:201F80008F939F93AF93BF93EF93FF9380E090E064E271E048E251E00E94F20EFF91EF91D1
:201FA000BF91AF919F918F917F916F915F914F913F912F910F900BBE0F900FBE0F901F90AF
:201FC00018951F920F920FB60F920BB60F9211242F933F934F935F936F937F938F939F9335
:201FE000AF93BF93EF93FF9383E090E064EA70E048EA50E00E94F20EFF91EF91BF91AF9124
:202000009F918F917F916F915F914F913F912F910F900BBE0F900FBE0F901F9018951F9280
:202020000F920FB60F920BB60F9211242F933F934F935F936F937F938F939F93AF93BF939E
:20204000EF93FF9382E090E064E970E048E950E00E94F20EFF91EF91BF91AF919F918F910A
:202060007F916F915F914F913F912F910F900BBE0F900FBE0F901F9018951F920F920FB60A
:202080000F920BB60F9211242F933F934F935F936F937F938F939F93AF93BF93EF93FF9390
:2020A00081E090E064E870E048E850E00E94F20EFF91EF91BF91AF919F918F917F916F91B1
:2020C0005F914F913F912F910F900BBE0F900FBE0F901F9018951F920F920FB60F921124E4
:2020E0002F933F938F939F93AF93BF938091BE079091BF07A091C007B091C1073091C2071C
:202100000196A11DB11D232F2D5F2D3720F02D570196A11DB11D2093C2078093BE0790932C
:20212000BF07A093C007B093C1078091BA079091BB07A091BC07B091BD070196A11DB11D03
:202140008093BA079093BB07A093BC07B093BD07BF91AF919F918F913F912F910F900FBEED
:202160000F901F9018958FB7F8942091BE073091BF074091C0075091C1078FBFB901CA0181
:202180000895789484B5826084BD84B5816084BD85B5826085BD85B5816085BDEEE6F0E080
:2021A000808181608083E1E8F0E01082808182608083808181608083E0E8F0E080818160CA
:2021C0008083E1EBF0E0808184608083E0EBF0E0808181608083E1E9F0E080818260808378
:2021E000808181608083E0E9F0E0808181608083E1EAF0E080818260808380818160808316
:20220000E0EAF0E0808181608083E1E2F1E0808182608083808181608083E0E2F1E080814C
:2022200081608083EAE7F0E08081846080838081826080838081816080838081806880837A
:202240001092C1000895382F863308F0365320917B00832F86958695869590E0817090704D
:2022600043E0880F991F4A95E1F7277F282B20937B003770809138028295880F880F807CDB
:20228000832B80937C0080917A00806480937A0080917A0086FDFCCF2091780040917900B9
:2022A000942F80E030E0282B392BC9010895482F50E0CA0188589E4FFC0124914E5C5E4F85
:2022C000FA0184918823C1F0E82FF0E0EE0FFF1FEC51FF4FA591B491662341F49FB7F894EA
:2022E0008C91209582238C939FBF08959FB7F8948C91822B8C939FBF0895893009F449C0C8
:202300008A30A0F4843051F1853040F4823079F1833000F5813009F063C026C0873079F1F8
:20232000883098F5863009F05BC025C08D3009F442C08E3028F48B30B1F18C30C0F52DC058
:20234000803109F442C0813109F445C08F3009F047C037C0809180008F7703C08091800078
:202360008F7D80938000089584B58F7702C084B58F7D84BD08958091B0008F7703C0809162
:20238000B0008F7D8093B0000895809190008F7707C0809190008F7D03C080919000877F9C
:2023A0008093900008958091A0008F7707C08091A0008F7D03C08091A000877F8093A00075
:2023C0000895809120018F7703C0809120018F7D80932001089580912001877F80932001EA
:2023E0000895FF920F931F93F62E482F50E0CA0182549E4FFC012491CA0188589E4FFC01BB
:2024000014914E5C5E4FFA0104910023C9F0222319F0822F0E947D11E02FF0E0EE0FFF1F2B
:20242000E250FF4FA591B4919FB7F894FF2021F48C911095812302C08C91812B8C939FBF1D
:202440001F910F91FF9008950F931F93482F50E0CA0182549E4FFC012491CA0188589E4F2D
:20246000FC0104914E5C5E4FFA011491112319F420E030E015C0222319F0822F0E947D117E
:20248000812F90E0880F991F885E9E4FFC01A591B4918C9120E030E0802311F021E030E0A0
:2024A000C9011F910F910895CF93DF930E94C1100E945104C0E0D0E00E940D052097E1F398
:2024C0000E940000F9CF2F923F924F925F926F927F928F929F92AF92BF92CF92DF92EF92E5
:2024E000FF920F931F93DF93CF93CDB7DEB73B014C0119012A016E897F89888D998D6A197F
:202500007B098C099D09621A730A840A950AA40193010E94C714E218F30804091509A80157
:2025200097010E9405152A0D3B1D4C1D5D1DB901CA01CF91DF911F910F91FF90EF90DF90B3
:20254000CF90BF90AF909F908F907F906F905F904F903F902F9008955058BB27AA270ED000
:2025600075C166D130F06BD120F031F49F3F11F41EF45BC10EF4E095E7FB51C1E92F77D181
:2025800080F3BA17620773078407950718F071F49EF58FC10EF4E0950B2EBA2FA02D0B012B
:2025A000B90190010C01CA01A0011124FF27591B99F0593F50F4503E68F11A16F040A22F0B
:2025C000232F342F4427585FF3CF469537952795A795F0405395C9F77EF41F16BA0B620B12
:2025E000730B840BBAF09150A1F0FF0FBB1F661F771F881FC2F70EC0BA0F621F731F841F02
:2026000048F4879577956795B795F7959E3F08F0B3CF9395880F08F09927EE0F979587956F
:202620000895D9D008F481E008950CD00FC107D140F0FED030F021F45F3F19F0F0C05111EA
:2026400039C1F3C014D198F39923C9F35523B1F3951B550BBB27AA2762177307840738F060
:202660009F5F5F4F220F331F441FAA1FA9F333D00E2E3AF0E0E830D091505040E695001C2A
:20268000CAF729D0FE2F27D0660F771F881FBB1F261737074807AB07B0E809F0BB0B802D50
:2026A000BF01FF2793585F4F2AF09E3F510568F0B6C000C15F3FECF3983EDCF38695779576
:2026C0006795B795F7959F5FC9F7880F911D9695879597F90895E1E0660F771F881FBB1F62
:2026E000621773078407BA0720F0621B730B840BBA0BEE1F88F7E095089504D06894B1110C
:20270000D9C00895BCD088F09F5790F0B92F9927B751A0F0D1F0660F771F881F991F1AF094
:20272000BA95C9F712C0B13081F0C3D0B1E00895C0C0672F782F8827B85F39F0B93FCCF342
:20274000869577956795B395D9F73EF490958095709561957F4F8F4F9F4F0895E89409C05B
:2027600097FB3EF490958095709561957F4F8F4F9F4F9923A9F0F92F96E9BB279395F69535
:20278000879577956795B795F111F8CFFAF4BB0F11F460FF1BC06F5F7F4F8F4F9F4F16C0CB
:2027A000882311F096E911C0772321F09EE8872F762F05C0662371F096E8862F70E060E01F
:2027C0002AF09A95660F771F881FDAF7880F9695879597F90895990F0008550FAA0BE0E891
:2027E000FEEF16161706E807F907C0F012161306E407F50798F0621B730B840B950B39F4FD
:202800000A2661F0232B242B252B21F408950A2609F4A140A6958FEF811D811D089597F968
:202820009F6780E870E060E008959FEF80EC089500240A941616170618060906089500246D
:202840000A9412161306140605060895092E0394000C11F4882352F0BB0F40F4BF2B11F41E
:2028600060FF04C06F5F7F4F8F4F9F4F089557FD9058440F551F59F05F3F71F04795880F72
:2028800097FB991F61F09F3F79F087950895121613061406551FF2CF4695F1DF08C016166E
:2028A00017061806991FF1CF86957105610508940895E894BB2766277727CB0197F90895B3
:2028C0008ADF08F48FEF08950BD0C0CFB1DF28F0B6DF18F0952309F0A2CFA7CF1124EACF43
:2028E000C6DFA0F3959FD1F3950F50E0551F629FF001729FBB27F00DB11D639FAA27F00DE0
:20290000B11DAA1F649F6627B00DA11D661F829F2227B00DA11D621F739FB00DA11D621F1C
:20292000839FA00D611D221F749F3327A00D611D231F849F600D211D822F762F6A2F11243D
:202940009F5750408AF0E1F088234AF0EE0FFF1FBB1F661F771F881F91505040A9F79E3F1C
:20296000510570F05CCFA6CF5F3FECF3983EDCF3869577956795B795F795E7959F5FC1F7B2
:20298000FE2B880F911D9695879597F90895629FD001739FF001829FE00DF11D649FE00D74
:2029A000F11D929FF00D839FF00D749FF00D659FF00D9927729FB00DE11DF91F639FB00D48
:2029C000E11DF91FBD01CF0111240895991B79E004C0991F961708F0961B881F7A95C9F72C
:2029E0008095089597FB092E07260AD077FD04D027D006D000201AF4709561957F4F0895AC
:202A0000F6F7909581959F4F089597FB092E05260ED057FD04D028D00AD0001C38F450950A
:202A20004095309521953F4F4F4F5F4F0895F6F790958095709561957F4F8F4F9F4F089576
:202A4000AA1BBB1B51E107C0AA1FBB1FA617B70710F0A61BB70B881F991F5A95A9F780953E
:202A60009095BC01CD010895A1E21A2EAA1BBB1BFD010DC0AA1FBB1FEE1FFF1FA217B30797
:202A8000E407F50720F0A21BB30BE40BF50B661F771F881F991F1A9469F76095709580953E
:202AA00090959B01AC01BD01CF010895EE0FFF1F0590F491E02D1994F894FFCF3A023D04B7
:202AC00001000000B4420B000A0009000000A0400000803F38009CFFEE0290012C010000C1
:202AE000803E0AD7233CCDCC4C3D39007C01B801B6FE77010100FFFFFFFFFFFFFFFFFFFF24
:202B0000822F762F6A2F11249F5750408AF0E1F088234AF0EE0FFF1FBB1F661F771F881F24
:202B200091505040A9F79E3F510570F05CCFA6CF5F3FECF3983EDCF3869577956795B795C0
:202B4000F795E7959F5FC1F7FE2B880F911D9695879597F90895629FD001739FF001829FDF
:202B6000E00DF11D649FE00DF11D929FF00D839FF00D749FF00D659FF00D9927729FB00D70
:202B8000E11DF91F639FB00DE11DF91FBD01CF0111240895991B79E004C0991F961708F0BC
:202BA000961B881F7A95C9F78095089597FB092E07260AD077FD04D027D006D000201AF429
:202BC000709561957F4F0895F6F7909581959F4F089597FB092E05260ED057FD04D028D0EA
:202BE0000AD0001C38F450954095309521953F4F4F4F5F4F0895F6F79095809570956195E5
:202C00007F4F8F4F9F4F0895AA1BBB1B51E107C0AA1FBB1FA617B70710F0A61BB70B881FA1
:202C2000991F5A95A9F780959095BC01CD010895A1E21A2EAA1BBB1BFD010DC0AA1FBB1F17
:202C4000EE1FFF1FA217B307E407F50720F0A21BB30BE40BF50B661F771F881F991F1A944D
:202C600069F760957095809590959B01AC01BD01CF010895EE0FFF1F0590F491E02D19945D
:202C8000F894FFCF3A023D0401000000B4420B000A0009000000A0400000803F38009CFFD6
:202CA000200390012C010000003FCDCCCC3DCDCCCC3D39007C01B801B6FE77010100FFFF16
:202CC000FFFFFFFFFFFFFFFFFFFFFFFFFFFFFFFFFFFFFFFFFFFFFFFFFFFFFFFFFFFFFFFF14
:202CE000FFFFFFFFFFFFFFFFFFFFFFFFFFFFFFFFFFFFFFFFFFFFFFFFFFFFFFFFFFFFFFFFF4
:202D00006709909168092817390731F48091C9008F7D8093C90016C0E0916709F0916809A2
:202D2000EB5DF64F40818091670990916809019660E470E00E941B1E909368098093670915
:202D40004093CE00FF91EF91BF91AF919F918F917F916F915F914F913F912F910F900BBE0A
:202D60000F900FBE0F901F9018951F920F920FB60F920BB60F9211242F933F934F935F9335
:202D80006F937F938F939F93AF93BF93EF93FF932091ED093091EE098091EF099091F009A1
:202DA0002817390731F48091D1008F7D8093D10016C0E091EF09F091F009E355F64F4081A6
:202DC0008091EF099091F009019660E470E00E941B1E9093F0098093EF094093D600FF916A
:202DE000EF91BF91AF919F918F917F916F915F914F913F912F910F900BBE0F900FBE0F9090
:202E00001F9018951F920F920FB60F920BB60F9211242F933F934F935F936F937F938F9369
:202E20009F93AF93BF93EF93FF932091750A3091760A8091770A9091780A2817390731F46E
:202E4000809131018F7D8093310116C0E091770AF091780AEB5CF54F40818091770A909114
:202E6000780A019660E470E00E941B1E9093780A8093770A40933601FF91EF91BF91AF91E7
:202E80009F918F917F916F915F914F913F912F910F900BBE0F900FBE0F901F901895AF9262
:202EA000BF92DF92EF92FF920F931F93CF93DF93EC017A018B01DD24403081EE580780E083
:202EC000680780E0780711F0DD24D39491E0A92EB12CEC89FD89DD2069F0C5010E8C02C0A3
:202EE000880F991F0A94E2F7808360E079E08DE390E005C0108260E874E88EE190E0A8010D
:202F000097010E942E1E2150304040405040569547953795279580E12030380720F0DD20EE
:202F200011F0DD24D6CFE889F9893083EA89FB892083EE89FF89408121E030E0C9010A8C79
:202F400002C0880F991F0A94E2F7482B4083EE89FF894081C9010B8C02C0880F991F0A94E3
:202F6000E2F7482B4083EE89FF894081C9010C8C02C0880F991F0A94E2F7482B4083EE89EB
:202F8000FF8980810D8C02C0220F331F0A94E2F7209528232083DF91CF911F910F91FF9001
:202FA000EF90DF90BF90AF900895DC011C96ED91FC911D97E05CFF4F219131918081918199
:202FC000281B390B2F733070C9010895DC011C96ED91FC911D97E05CFF4F20813181E05462
:202FE000F040DF01AE5BBF4F8D919C9111972817390719F42FEF3FEF07C08D919C91E80FD6
:20300000F91F8081282F30E0C9010895DC011C96ED91FC911D97E05CFF4F20813181E0546A
:20302000F040DF01AE5BBF4F8D919C9111972817390719F42FEF3FEF10C08D919C911197DB
:20304000E80FF91F20818D919C91119701968F73907011969C938E9330E0C9010895FC01C9
:2030600086859785DC01A05CBF4FFC01EE5BFF4F2D913C9111978081918128173907C1F731
:203080000895CF93DF93EC01462FEE85FF85E05CFF4F80819181E054F040019660E470E03A
:2030A0000E941B1E9C01DF01AE5BBF4F8D919C91119728173907D1F3E05CFF4F80819181CE
:2030C000E054F040E80FF91F4083EE85FF85E05CFF4F31832083EE89FF89208181E090E071
:2030E0000D8C02C0880F991F0A94E2F7282B208381E090E0DF91CF9108951F9310927C0AA1
:2031000010927B0A28EE33E040E050E020937D0A30937E0A40937F0A5093800A64EA72E021
:2031200070937A0A6093790A89E598E09093860A8093850A8DE998E09093880A8093870A10
:2031400085EC90E090938A0A8093890A84EC90E090938C0A80938B0A80EC90E090938E0A59
:2031600080938D0A81EC90E09093900A80938F0A86EC90E09093920A8093910A14E0109379
:20318000930AB3E0B093940AA7E0A093950AF5E0F093960AE1E0E093970A10929B0A10920F
:2031A0009A0A20939C0A30939D0A40939E0A50939F0A7093990A6093980A81EE98E090935C
:2031C000A50A8093A40A85E299E09093A70A8093A60A8DEC90E09093A90A8093A80A8CEC0C
:2031E00090E09093AB0A8093AA0A88EC90E09093AD0A8093AC0A89EC90E09093AF0A809365
:20320000AE0A8EEC90E09093B10A8093B00A1093B20AB093B30AA093B40AF093B50AE0935C
:20322000B60A1092BA0A1092B90A2093BB0A3093BC0A4093BD0A5093BE0A7093B80A609305
:20324000B70A89E699E09093C40A8093C30A8DEA99E09093C60A8093C50A85ED90E090932A
:20326000C80A8093C70A84ED90E09093CA0A8093C90A80ED90E09093CC0A8093CB0A81EDAE
:2032800090E09093CE0A8093CD0A86ED90E09093D00A8093CF0A1093D10AB093D20AA0933D
:2032A000D30AF093D40AE093D50A1092D90A1092D80A2093DA0A3093DB0A4093DC0A50939A
:2032C000DD0A7093D70A6093D60A81EF99E09093E30A8093E20A85E39AE09093E50A809351
:2032E000E40A85E391E09093E70A8093E60A84E391E09093E90A8093E80A80E391E0909306
:20330000EB0A8093EA0A81E391E09093ED0A8093EC0A86E391E09093EF0A8093EE0A109315
:20332000F00AB093F10AA093F20AF093F30AE093F40A1F910895CF93DF930E945B130E9462
:203340001D09C2EDD5E10E94A5052097E1F30E94D215F9CFCF92DF92EF92FF920F931F9382
:20336000CF93DF937C016B018A01C0E0D0E00FC0D6016D916D01D701ED91FC910190F081BE
:20338000E02DC7011995C80FD91F015010400115110571F7CE01DF91CF911F910F91FF9028
:2033A000EF90DF90CF900895EF92FF920F931F938C01DC01ED91FC910190F081E02D6DE0EC
:2033C00019957C01D801ED91FC910190F081E02DC8016AE019959C012E0D3F1DC9011F9160
:2033E0000F91FF90EF900895CF93DF93DB010D900020E9F71197A61BB70BEC01E881F9813A
:203400000280F381E02DAD011995DF91CF9108954F925F927F928F929F92AF92BF92CF92B8
:20342000DF92EF92FF920F931F93DF93CF93CDB7DEB7A1970FB6F894DEBF0FBECDBF2C011C
:20344000742ECB01223008F42AE019A231E2C32ED12CCC0EDD1E822E9924AA24BB24672D67
:20346000752FA50194010E942E1E79018A01C801B701A50194010E94F01D472D461B08949E
:20348000C108D1084A3014F4405D01C0495CF6014083E114F1040105110521F07E2C5F2DFE
:2034A000C801DDCFC201B6010E94F419A1960FB6F894DEBF0FBECDBFCF91DF911F910F91D0
:2034C000FF90EF90DF90CF90BF90AF909F908F907F905F904F900895DC012115310541F43C
:2034E000ED91FC910190F081E02D642F199508950E94081A0895CF92DF92EF92FF920F93ED
:203500001F936C017B019A0100E010E0B801A7010E946C1A8C01C6010E94D419080F191FEA
:20352000C8011F910F91FF90EF90DF90CF900895CF92DF92EF92FF920F931F93CF93DF93ED
:20354000EC016A017B012115310541F4E881F9810190F081E02D642F19951FC02A30310554
:20356000D1F477FF17C0E881F9810190F081E02D6DE219958C0144275527BA014C195D0950
:203580006E097F09CE012AE00E94081A9801280F391F04C02AE00E94081A9C01C901DF91FE
:2035A000CF911F910F91FF90EF90DF90CF9008950E94F41908957F928F929F92AF92BF92A1
:2035C000CF92DF92EF92FF920F931F93CF93DF934C017A018B01722ECB01BA0120E030E054
:2035E00040E050E00E943A1C87FD03C0C0E0D0E00EC0D401ED91FC910190F081E02DC4016A
:203600006DE21995EC0117FB109517F9109520E030E040E05FE3AA240BC0CA01B90120E0C4
:2036200030E040E251E40E943E1C9B01AC01A394A71498F3C801B7010E94D61B5B016C0184
:203640000E94AB1C7B018C01C401B801A7012AE030E00E946C1AC80FD91F772039F0C4013C
:203660006DE672E00E94F419C80FD91FC801B7010E94D71C9B01AC01C601B5010E94D51BB9
:2036800024C020E030E040E251E40E948D1D7B018C010E94A61C5B016C01CC24B7FCC09466
:2036A000DC2CC401B601A5012AE030E00E94981AC80FD91FC601B5010E94D91C9B01AC0146
:2036C000C801B7010E94D51B7A947720D1F6CE01DF91CF911F910F91FF90EF90DF90CF90A0
:2036E000BF90AF909F908F907F9008950E94DB1A0895EF92FF920F931F937C010E94F4197C
:203700008C01C7010E94D419080F191FC8011F910F91FF90EF9008952F923F924F925F924E
:203720006F927F928F929F92AF92BF92CF92DF92EF92FF920F931F93DF93CF93CDB7DEB76E
:203740003B014C0119012A016E897F89888D998D6A197B098C099D09621A730A840A950AF9
:20376000A40193010E94F01DE218F30804091509A80197010E94501E2A0D3B1D4C1D5D1D7E
:20378000B901CA01CF91DF911F910F91FF90EF90DF90CF90BF90AF909F908F907F906F90BE
:2037A0005F904F903F902F9008955058BB27AA270ED075C166D130F06BD120F031F49F3FFB
:2037C00011F41EF45BC10EF4E095E7FB51C1E92F77D180F3BA17620773078407950718F095
:2037E00071F49EF58FC10EF4E0950B2EBA2FA02D0B01B90190010C01CA01A0011124FF27F0
:20380000591B99F0593F50F4503E68F11A16F040A22F232F342F4427585FF3CF4695379577
:203820002795A795F0405395C9F77EF41F16BA0B620B730B840BBAF09150A1F0FF0FBB1FCE
:20384000661F771F881FC2F70EC0BA0F621F731F841F48F4879577956795B795F7959E3F8B
:2038600008F0B3CF9395880F08F09927EE0F979587950895D9D008F481E008950CD00FC126
:2038800007D140F0FED030F021F45F3F19F0F0C0511139C1F3C014D198F39923C9F3552357
:2038A000B1F3951B550BBB27AA2762177307840738F09F5F5F4F220F331F441FAA1FA9F304
:2038C00033D00E2E3AF0E0E830D091505040E695001CCAF729D0FE2F27D0660F771F881F1F
:2038E000BB1F261737074807AB07B0E809F0BB0B802DBF01FF2793585F4F2AF09E3F5105A2
:2039000068F0B6C000C15F3FECF3983EDCF3869577956795B795F7959F5FC9F7880F911DF8
:203920009695879597F90895E1E0660F771F881FBB1F621773078407BA0720F0621B730B7C
:20394000840BBA0BEE1F88F7E095089504D06894B111D9C00895BCD088F09F5790F0B92F4B
:203960009927B751A0F0D1F0660F771F881F991F1AF0BA95C9F712C0B13081F0C3D0B1E063
:203980000895C0C0672F782F8827B85F39F0B93FCCF3869577956795B395D9F73EF4909595
:2039A0008095709561957F4F8F4F9F4F0895E89409C097FB3EF490958095709561957F4FB4
:2039C0008F4F9F4F9923A9F0F92F96E9BB279395F695879577956795B795F111F8CFFAF463
:2039E000BB0F11F460FF1BC06F5F7F4F8F4F9F4F16C0882311F096E911C0772321F09EE853
:203A0000872F762F05C0662371F096E8862F70E060E02AF09A95660F771F881FDAF7880F76
:203A20009695879597F90895990F0008550FAA0BE0E8FEEF16161706E807F907C0F0121684
:203A40001306E407F50798F0621B730B840B950B39F40A2661F0232B242B252B21F4089567
:203A60000A2609F4A140A6958FEF811D811D089597F99F6780E870E060E008959FEF80EC81
:203A8000089500240A941616170618060906089500240A9412161306140605060895092EB8
:203AA0000394000C11F4882352F0BB0F40F4BF2B11F460FF04C06F5F7F4F8F4F9F4F08955C
:203AC00057FD9058440F551F59F05F3F71F04795880F97FB991F61F09F3F79F0879508958D
:203AE000121613061406551FF2CF4695F1DF08C0161617061806991FF1CF869571056105ED
:203B000008940895E894BB2766277727CB0197F908958ADF08F48FEF08950BD0C0CFB1DF70
:203B200028F0B6DF18F0952309F0A2CFA7CF1124EACFC6DFA0F3959FD1F3950F50E0551FD2
:203B4000629FF001729FBB27F00DB11D639FAA27F00DB11DAA1F649F6627B00DA11D661FBE
:203B6000829F2227B00DA11D621F739FB00DA11D621F839FA00D611D221F749F3327A00D29
:203B8000611D231F849F600D211D822F762F6A2F11249F5750408AF0E1F088234AF0EE0FC0
:203BA000FF1FBB1F661F771F881F91505040A9F79E3F510570F05CCFA6CF5F3FECF3983EB4
:203BC000DCF3869577956795B795F795E7959F5FC1F7FE2B880F911D9695879597F9089507
:203BE000629FD001739FF001829FE00DF11D649FE00DF11D929FF00D839FF00D749FF00D79
:203C0000659FF00D9927729FB00DE11DF91F639FB00DE11DF91FBD01CF0111240895991B16
:203C200079E004C0991F961708F0961B881F7A95C9F78095089597FB092E07260AD077FDED
:203C400004D049D006D000201AF4709561957F4F0895F6F7909581959F4F0895A1E21A2E8F
:203C6000AA1BBB1BFD010DC0AA1FBB1FEE1FFF1FA217B307E407F50720F0A21BB30BE40B3C
:203C8000F50B661F771F881F991F1A9469F760957095809590959B01AC01BD01CF010895F4
:203CA00097FB092E05260ED057FD04D0D7DF0AD0001C38F450954095309521953F4F4F4FD1
:203CC0005F4F0895F6F790958095709561957F4F8F4F9F4F0895AA1BBB1B51E107C0AA1FE3
:203CE000BB1FA617B70710F0A61BB70B881F991F5A95A9F780959095BC01CD010895EE0F9F
:203D0000FF1F0590F491E02D1994F894FFCF504944200020004175746F6D61746963004D46
:203D2000616E75616C004469726563740052657665727365004D31206661756C74004D3202
:203D4000206661756C74004D312063757272656E743A20004D322063757272656E743A2030
:203D6000004475616C20564E4835303139204D6F746F7220536869656C64002E00B002B3A5
:203D80000401000B000A0009000000A0400000803F0000803E6F12833ACDCC4C3D0200033E
:203DA00000FF0177019CFF20039001900101000000004118AA19D5170618E6172F18FFFF42
:203DC000FFFFFFFFFFFFFFFFFFFFFFFFFFFFFFFFFFFFFFFFFFFFFFFFFFFFFFFFFFFFFFFF03
:203DE000FFFFFFFFFFFFFFFFFFFFFFFFFFFFFFFFFFFFFFFFFFFFFFFFFFFFFFFFFFFFFFFFE3
:203E0000FFFFFFFFFFFFFFFFFFFFFFFFFFFFFFFFFFFFFFFFFFFFFFFFFFFFFFFFFFFFFFFFC2
:203E2000FFFFFFFFFFFFFFFFFFFFFFFFFFFFFFFFFFFFFFFFFFFFFFFFFFFFFFFFFFFFFFFFA2
:020000040003F7
:20E000000D94F6F20D941FF30D941FF30D941FF30D941FF30D941FF30D941FF30D941FF392
:20E020000D941FF30D941FF30D941FF30D941FF30D941FF30D941FF30D941FF30D941FF348
:20E040000D941FF30D941FF30D941FF30D941FF30D941FF30D941FF30D941FF30D941FF328
:20E060000D941FF30D941FF30D941FF30D941FF30D941FF30D941FF30D941FF30D941FF308
:20E080000D941FF30D941FF30D941FF30D941FF30D941FF30D941FF30D941FF30D941FF3E8
:20E0A0000D941FF30D941FF30D941FF30D941FF30D941FF30D941FF30D941FF30D941FF3C8
:20E0C0000D941FF30D941FF30D941FF30D941FF30D941FF30D941FF30D941FF30D941FF3A8
:20E0E0000D941FF341546D656761323536300041726475696E6F206578706C6F72657220EE
:20E1000073746B3530305632206279204D4C5300426F6F746C6F616465723E004875683FDC
:20E1200000436F6D70696C6564206F6E20203D2000435055205479706520202020203D2071
:20E14000005F5F4156525F415243485F5F203D2000415652204C69624320566572203D2033
:20E16000004743432056657273696F6E20203D2000435055207369676E61747572653D20F8
:20E18000004C6F77206675736520202020203D2000486967682066757365202020203D204D
:20E1A00000457874206675736520202020203D20004C6F636B2066757365202020203D2025
:20E1C00000536570202039203230313000312E362E3700342E332E3300562320202041446D
:20E1E00044522020206F7020636F64652020202020696E737472756374696F6E20616464E4
:20E2000072202020496E74657272757074006E6F20766563746F7200726A6D702020006A6C
:20E220006D7020005768617420706F72743A00506F7274206E6F7420737570706F72746576
:20E2400064004D7573742062652061206C65747465720020005772697474696E6720454577
:20E260000052656164696E6720454500656570726F6D206572726F7220636F756E743D00E2
:20E28000504F525400303D5A65726F20616464726573732063747273003F3D435055207353
:20E2A0007461747300403D454550524F4D207465737400423D426C696E6B204C45440045D4
:20E2C0003D44756D7020454550524F4D00463D44756D7020464C41534800483D48656C70CE
:20E2E000004C3D4C69737420492F4F20506F72747300513D517569742026206A756D702067
:20E30000746F20757365722070676D00523D44756D702052414D00563D73686F7720696E67
:20E320007465727275707420566563746F727300593D506F727420626C696E6B002A0052DA
:20E340004553455400494E543000494E543100494E543200494E543300494E543400494E64
:20E36000543500494E543600494E5437005043494E5430005043494E5431005043494E54F6
:20E3800032005744540054494D45523020434F4D50410054494D45523020434F4D504200D9
:20E3A00054494D455230204F56460054494D45523120434150540054494D45523120434F43
:20E3C0004D50410054494D45523120434F4D50420054494D45523120434F4D50430054493B
:20E3E0004D455231204F56460054494D45523220434F4D50410054494D45523220434F4D08
:20E4000050420054494D455232204F56460054494D45523320434150540054494D455233FC
:20E4200020434F4D50410054494D45523320434F4D50420054494D45523320434F4D5043C1
:20E440000054494D455233204F56460054494D45523420434150540054494D4552342043E8
:20E460004F4D50410054494D45523420434F4D50420054494D45523420434F4D504300548E
:20E48000494D455234204F56460054494D45523520434150540054494D45523520434F4D5D
:20E4A00050410054494D45523520434F4D50420054494D45523520434F4D50430054494D52
:20E4C000455235204F56460055534152543020525800555341525430205544524500555325
:20E4E0004152543020545800555341525431205258005553415254312055445245005553F7
:20E500004152543120545800555341525432205258005553415254322055445245005553D3
:20E520004152543220545800555341525433205258005553415254332055445245005553B0
:20E540004152543320545800535049205354430041444300414E414C4F4720434F4D500016
:20E560004545205245414459005457490053504D205245414459002A003FE345E34AE34F13
:20E58000E354E359E35EE363E368E36DE374E37BE382E3E9E3F6E303E4ABE3B7E3C4E3D1BD
:20E5A000E3DEE386E393E3A0E348E5C8E4D2E4DEE454E550E560E50EE41AE427E434E441FD
:20E5C000E4E8E4F2E4FEE469E56DE54CE458E465E472E47FE48AE496E4A3E4B0E4BDE40819
:20E5E000E512E51EE528E532E53EE50011241FBECFEFD1E2DEBFCDBF01E00CBF12E0A0E02B
:20E60000B2E0EAEDFFEF03E00BBF02C007900D92A030B107D9F712E0A0E0B2E001C01D9232
:20E62000AC30B107E1F70F94FBF40D94EBFF01E20EBF0FEF0DBF11241FBE0D94FBF40D9494
:20E6400000F020E030E040ED57E005C0FA013197F1F72F5F3F4F28173907C0F308959C015E
:20E66000442737FD4095542FDA01C901860F911DA11DB11DABBFFC018791882369F0809399
:20E68000C6008091C00086FFFCCF8091C00080648093C0006F5FE8CF08958DE08093C600A3
:20E6A0008091C00086FFFCCF8091C00080648093C0008AE08093C6008091C00086FFFCCF4D
:20E6C0008091C00080648093C00008950F942FF30F944DF30895FC019081992359F090939A
:20E6E000C6008091C00086FFFCCF8091C00080648093C0003196992379F70895282F982FFD
:20E7000092959F70892F805D8A3308F0895F8093C6008091C00086FFFCCF8091C0008064E2
:20E720008093C000822F8F70982F905D9A3308F0995F9093C6008091C00086FFFCCF8091CA
:20E74000C00080648093C00008959C01FB01853691051CF46330710594F0C90164E670E0BA
:20E760000F948CFF605D7F4F6093C6008091C00086FFFCCF8091C00080648093C0002B3023
:20E78000310514F43297B4F0C90164E670E00F948CFF6AE070E00F948CFF605D7F4F6093F6
:20E7A000C6008091C00086FFFCCF8091C00080648093C000C9016AE070E00F948CFFC09602
:20E7C0008093C6008091C00086FFFCCF8091C00080648093C0000895282F277020642093F5
:20E7E0007C0020917B0086958695869590E08170907033E0880F991F3A95E1F7277F282BBD
:20E8000020937B0080917A00806480937A0080917A0086FDFCCF2091780040917900942FBF
:20E8200080E030E0282B392BC90108951F93182F80E892EE60E00F942FF31093C6008091EA
:20E84000C00086FFFCCF8091C00080648093C0000F944DF31F9108952F923F924F925F928C
:20E860006F927F928F929F92AF92BF92CF92DF92EF92FF920F931F93DF93CF93CDB7DEB77D
:20E8800062970FB6F894DEBF0FBECDBF382E622ECA01DB015C016D01772460E2262E2E0170
:20E8A0000894411C511C8BC081E0A81680E0B80681E0C80680E0D80628F0C601AA27BB276B
:20E8C0000F947EF3BB27AD2D9C2D8B2D0F947EF38A2D0F947EF32092C6008091C00086FF3A
:20E8E000FCCF8091C00080648093C0009DE29093C6008091C00086FFFCCF8091C000806487
:20E900008093C0002092C6008091C00086FFFCCF8091C00080648093C0001982860175016B
:20E9200088249924A1E03A1651F03A1620F0B2E03B1661F409C00BBFF701779007C0C701A3
:20E940000F94D5FF782E02C0F7017080872D0F947EF32092C6008091C00086FFFCCF80917E
:20E96000C00080648093C000872D8052F401EF70F0708F3520F4E40DF51D708204C0E40D64
:20E98000F51D8EE280830894E11CF11C011D111D0894811C911C90E18916910409F0C2CFEB
:20E9A00080E190E0A0E0B0E0A80EB91ECA1EDB1E198AC2010F946BF30F944DF36A9466203A
:20E9C00009F072CF62960FB6F894DEBF0FBECDBFCF91DF911F910F91FF90EF90DF90CF90C2
:20E9E000BF90AF909F908F907F906F905F904F903F902F9008952F923F924F925F926F92CF
:20EA00007F928F929F92AF92BF92CF92DF92EF92FF920F931F93DF93CF93CDB7DEB7CD53BC
:20EA2000D1400FB6F894DEBF0FBECDBF279A2F9A8091C00082608093C00080E18093C40036
:20EA400088E18093C1000000EE24FF248701B4E0AB2EB12CCC24DD2424C0C5010197F1F757
:20EA60000894E11CF11C011D111D21E2E2162EE4F20620E0020720E0120718F0A1E0CA2EFC
:20EA8000D12CC801B70128E53BE140E050E00F949FFF611571058105910519F485B180581B
:20EAA00085B98091C00087FD03C0C114D104A9F2A6014F5F5F4FC25EDE4F59834883CE51A5
:20EAC000D140C25EDE4F68817981CE51D1406130710511F00D946EFFC05DDE4F1982188230
:20EAE000C053D14060E0C15DDE4F1882CF52D140AA24BB24C05EDE4F188219821A821B8235
:20EB0000C052D140CE5CDE4F188219821A821B82C253D14080E090E0A0E0B0E0ABBFFC01A0
:20EB2000A791B691C45CDE4FB983A883CC53D1400D9469FFC25EDE4FE881F981CE51D14009
:20EB4000319709F52091C600C25EDE4F19821882CE51D14022C02F5F3F4F4F4F5F4F21302B
:20EB6000F2E13F07FAE74F07F0E05F0780F0C45CDE4F08811981CC53D1400F5F1F4F19F01A
:20EB8000EE27FF27099420E030E040E050E08091C00087FFE0CF2091C600213209F094C61A
:20EBA0000894A11CB11C33E0A316B10409F08EC600E010E018C041E24093C6008091C0002C
:20EBC00086FFFCCF8091C00080648093C0002F5F3F4F2931310579F70F944DF30F5F1F4F82
:20EBE0000530110519F020E030E0E5CF109208021092090210920A0210920B02109204029F
:20EC0000109205021092060210920702109200021092010210920202109203028FEE90EE65
:20EC200060E00F9466F380E191EE60E00F942FF38091C00087FFFCCF9091C600903608F0EC
:20EC40009F759032B8F09093C6008091C00086FFFCCF8091C00080648093C00080E280932F
:20EC6000C6008091C00086FFFCCF8091C00080648093C000983409F4DBC19934B8F4923481
:20EC800009F45DC1933458F4903319F1903308F418C69F33A1F1903409F013C6BDC095349C
:20ECA00009F474C1963409F00CC69CC1923509F42FC2933538F49C3409F4F9C1913509F041
:20ECC00000C61CC2963509F449C2993509F0F9C59CC485E892EE62E00F9466F31092040205
:20ECE000109205021092060210920702109208021092090210920A0210920B0217C189E916
:20ED000092EE62E00F9466F38FEE90EE60E00F9466F381E291EE60E00F942FF381EC91EE2B
:20ED200060E00F9466F381E391EE60E00F942FF384EE90EE60E00F9466F381E491EE60E05F
:20ED40000F942FF386E090E061E070E00F94A5F30F944DF381E691EE60E00F942FF383ED0E
:20ED600091EE60E00F9466F381E591EE60E00F942FF38DEC91EE60E00F9466F381E791EED3
:20ED800060E00F942FF38EE10F947EF388E90F947EF381E00F947EF30F944DF381E891EE26
:20EDA00060E00F942FF319E0E0E0F0E010935700E4918E2F0F947EF30F944DF381E991EEB9
:20EDC00060E00F942FF3E3E0F0E010935700E4918E2F0F947EF30F944DF381EA91EE60E04E
:20EDE0000F942FF3E2E0F0E010935700E4918E2F0F947EF30F944DF381EB91EE60E00F94CB
:20EE00002FF3E1E0F0E0109357001491812F0F947EF30F944DF307CF85EA92EE62E00F944F
:20EE200066F385E592EE60E00F9466F30F944DF300E010E019C0C8016F2D0F94DDFFFF20C4
:20EE400031F483E592EE60E00F942FF30BC0F092C6008091C00086FFFCCF8091C0008064B7
:20EE60008093C0000F5F1F4FC80181519F41AA2797FDA095BA2FABBFFC01F7905AE2F516B0
:20EE800021F062E000301607B1F60F944DF30F944DF381E692EE60E00F9466F30F944DF35F
:20EEA000CC24DD2400E010E01EC0C8010F94D5FFF82E882331F483E592EE60E00F942FF390
:20EEC0000BC08093C6008091C00086FFFCCF8091C00080648093C000FE1419F00894C11C51
:20EEE000D11C0F5F1F4FC80181519F41AA2797FDA095BA2FABBFFC01E7907AE2E71621F003
:20EF000082E00030180789F60F944DF30F944DF38CE692EE60E00F942FF3C60161E070E0AC
:20EF20000F94A5F30F944DF30F944DF31092000210920102109202021092030274CE83EB8A
:20EF400092EE62E00F9466F3279A2F9A16C02F9880E090E0E0EDF7E03197F1F70196843657
:20EF60009105C1F72F9A80E090E0E0EDF7E03197F1F7019684369105C1F78091C00087FF60
:20EF8000E6CF8091C00087FFFCCF95C48FEB92EE62E00F9466F34091000250910102609161
:20EFA00002027091030281E020E10F942CF48091000290910102A0910202B09103028050A0
:20EFC0009F4FAF4FBF4F8093000290930102A0930202B093030280509041A040B04008F410
:20EFE00022CEA4CF8DEC92EE62E00F9466F34091040250910502609106027091070280E055
:20F0000020E10F942CF48091040290910502A0910602B091070280509F4FAF4FBF4F80938D
:20F02000040290930502A0930602B0930702FBCD8AED92EE62E00F9466F385E892EE60E0EF
:20F040000F9466F389E992EE60E00F9466F385EA92EE60E00F9466F383EB92EE60E00F948A
:20F0600066F38FEB92EE60E00F9466F38DEC92EE60E00F9466F38AED92EE60E00F9466F399
:20F0800081EE92EE60E00F9466F382EF92EE60E00F9466F38CE093EE60E00F9466F387E187
:20F0A00093EE60E00F9466F380E393EEB9CD81EE92EE62E00F9466F381E40F9416F482E484
:20F0C0000F9416F483E40F9416F484E40F9416F485E40F9416F486E40F9416F487E40F941F
:20F0E00016F488E40F9416F48AE40F9416F48BE40F9416F48CE40F9416F495CD82EF92EE46
:20F1000062E00F9466F399249394AA24BB2445C48CE093EE62E00F9466F340910802509130
:20F12000090260910A0270910B0282E020E10F942CF48091080290910902A0910A02B091CE
:20F140000B0280509F4FAF4FBF4F8093080290930902A0930A02B0930B0265CD87E193EEE3
:20F1600062E00F9466F384EE90EE60E00F9466F389ED91EE60E00F9466F309E715EECC5DD8
:20F18000DE4F19830883C452D140662477244301CA5DDE4F19821882C652D140A4019301A0
:20F1A0005695479537952795C85DDE4F288339834A835B83C852D140CA5DDE4F488159817A
:20F1C000C652D1404F5F5F4FCA5DDE4F59834883C652D140CA0162E070E00F94A5F350E2BC
:20F1E0005093C6008091C00086FFFCCF8091C00080648093C0006DE26093C6008091C000E4
:20F2000086FFFCCF8091C00080648093C00070E27093C6008091C00086FFFCCF8091C00009
:20F2200080648093C000C85DDE4FE880F9800A811B81C852D140BB27A12F902F8F2D0F94C2
:20F240007EF3C85DDE4F8881C852D1400F947EF370E2F72EF092C6008091C00086FFFCCFC3
:20F260008091C00080648093C0000DE30093C6008091C00086FFFCCF8091C00080648093D4
:20F28000C00010E21093C6008091C00086FFFCCF8091C00080648093C0008BBEF3012791B5
:20F2A000C45DDE4F2883CC52D140A22EBB24CC24DD240894611C711C811C911C8BBEF30159
:20F2C0008791282E332444245524142D032DF22CEE24EA0CFB1C0C1D1D1D0894611C711CD1
:20F2E000811C911C8BBEF3013791C35DDE4F3883CD52D1400894611C711C811C911C8BBE4E
:20F30000F3014791C25DDE4F4883CE52D1402DEF3FEF4FEF5FEF620E731E841E951E0F940A
:20F320007EF330E23093C6008091C00086FFFCCF8091C00080648093C000C45DDE4F8881C1
:20F34000CC52D1400F947EF340E24093C6008091C00086FFFCCF8091C00080648093C00006
:20F36000C25DDE4F8881CE52D1400F947EF350E25093C6008091C00086FFFCCF8091C00026
:20F3800080648093C000C35DDE4F8881CD52D1400F947EF360E26093C6008091C00086FFCB
:20F3A000FCCF8091C00080648093C0007FEFE7167FEFF70670E0070770E0170731F48EE0C5
:20F3C00092EE60E00F942FF3DFC0D801C7018070907CA070B0708050904CA040B040D1F5FA
:20F3E0002FEF3FE340E050E0E222F32204231523C85DDE4FA880B980CA80DB80C852D14082
:20F40000AE0CBF1CC01ED11EAA0CBB1CCC1CDD1C88E192EE60E00F942FF3BB27A12F902FBD
:20F420008F2D0F947EF38E2D0F947EF330E23093C6008091C00086FFFCCF8091C0008064BC
:20F440008093C0004EE34093C6008091C00086FFFCCF87C06EE07EEF80E090E0E622F722FB
:20F46000082319237CE0E71674E9F70670E0070770E0170709F088C0C25DDE4F8881CE52F0
:20F48000D140E82EFF2400E010E0102F0F2DFE2CEE24C35DDE4F9881CD52D140E90EF11C01
:20F4A000011D111DD601C50181709070A070B070DC0199278827E80EF91E0A1F1B1F20EF77
:20F4C00030E040E050E0A222B322C422D522F1E1AA0CBB1CCC1CDD1CFA95D1F7EA0CFB1CB2
:20F4E0000C1D1D1D41E050E060E070E02422352246225722E5E1220C331C441C551CEA95B7
:20F50000D1F7E20CF31C041D151D57016801AA0CBB1CCC1CDD1C8FE192EE60E00F942FF3AF
:20F52000C801AA27BB270F947EF3BB27A12F902F8F2D0F947EF38E2D0F947EF350E2509316
:20F54000C6008091C00086FFFCCF8091C00080648093C0006EE36093C6008091C00086FFDC
:20F56000FCCF8091C00080648093C000C601AA27BB270F947EF3BB27AD2D9C2D8B2D0F94CA
:20F580007EF38A2D0F947EF370E27093C6008091C00086FFFCCF8091C00080648093C0006B
:20F5A000CC5DDE4FE881F981C452D140CF01AA2797FDA095BA2FABBFFC018791969160E0B2
:20F5C0000F942FF30F944DF3CC5DDE4F08811981C452D1400E5F1F4FCC5DDE4F198308838B
:20F5E000C452D140CA5DDE4F28813981C652D1402933310509F417CB44E050E060E070E0AF
:20F60000640E751E861E971EC9CD80E393EE62E00F9466F384E292EE60E00F942FF38091D8
:20F62000C00087FFFCCF1091C6001F751093C6008091C00086FFFCCF8091C000806480936C
:20F64000C0000F944DF3812F81548A3108F036C1163409F495C0173490F4133409F44EC01B
:20F66000143430F41134F1F0123409F01DC130C0143409F459C0153409F016C16BC01A34FB
:20F6800009F4C4C01B3438F4173409F48FC0183409F00AC1A1C01B3409F4D2C01C3409F03F
:20F6A00003C1E8C08FEF81B90DC082B1809582B980E090E0E0EDF7E03197F1F70196883C57
:20F6C0009105C1F78091C00087FFEFCF12B8EFC08FEF84B90DC085B1809585B980E090E06D
:20F6E000E0EDF7E03197F1F70196883C9105C1F78091C00087FFEFCF15B8D9C08FEF87B9D4
:20F700000DC088B1809588B980E090E0E0EDF7E03197F1F70196883C9105C1F78091C000EF
:20F7200087FFEFCF18B8C3C08FEF8AB90DC08BB180958BB980E090E0E0EDF7E03197F1F7EB
:20F740000196883C9105C1F78091C00087FFEFCF1BB8ADC08FEF8DB90DC08EB180958EB97F
:20F7600080E090E0E0EDF7E03197F1F70196883C9105C1F78091C00087FFEFCF1EB897C07A
:20F780008FEF80BB0DC081B3809581BB80E090E0E0EDF7E03197F1F70196883C9105C1F791
:20F7A0008091C00087FFEFCF11BA81C08FEF83BB0DC084B3809584BB80E090E0E0EDF7E0A0
:20F7C0003197F1F70196883C9105C1F78091C00087FFEFCF14BA6BC08FEF809301010FC060
:20F7E0008091020180958093020180E090E0E0EDF7E03197F1F70196883C9105C1F78091EC
:20F80000C00087FFEDCF1092020151C08FEF809304010FC08091050180958093050180E026
:20F8200090E0E0EDF7E03197F1F70196883C9105C1F78091C00087FFEDCF1092050137C0A9
:20F840008FEF809307010FC08091080180958093080180E090E0E0EDF7E03197F1F701963A
:20F86000883C9105C1F78091C00087FFEDCF109208011DC08FEF80930A010FC080910B0153
:20F88000809580930B0180E090E0E0EDF7E03197F1F70196883C9105C1F78091C00087FF10
:20F8A000EDCF10920B0103C08FE292EEB9C98091C00087FFFCCF8091C600B5C982E492EE4B
:20F8C000AFC98CE191EEACC9AA24BB24933061F1943028F4913089F0923008F508C0953027
:20F8E000B1F1953040F1963009F053C04EC02B3109F020C991E06BE11DC9213041F0C15D0F
:20F90000DE4F5881CF52D140251709F002C36227C15DDE4F2883CF52D14092E00BC9B22FDD
:20F92000A0E0622793E006C9822F90E0A82BB92B622794E0FFC82E3009F0EBC2622795E0DE
:20F94000C05DDE4F19821882C053D140F3C8E1E0F0E0EC0FFD1FC05DDE4FE880F980C05363
:20F96000D140EE0DFF1D208387010F5F1F4FC05DDE4F19830883C053D14062270A171B07F7
:20F9800009F0D8C8D80196E0D5C8261709F0C1C203C0973009F0CEC899248981833109F498
:20F9A000FCC08431C8F4863009F4C2C0873050F4823009F4F0C0833009F458C0813009F019
:20F9C0000AC23EC0813109F462C0823108F0A6C0803109F000C2DFC0883109F472C08931CE
:20F9E00050F4853109F4D9C0853108F477C1863109F0F1C173C18A3109F457C08A3108F471
:20FA00007CC08B3109F446C08D3109F0E4C18D81803311F090E00AC08F81882311F49EE154
:20FA200005C0813011F091E001C098E91A821B828D818C831D829E831F8227E030E0CFC13E
:20FA40001A8288E08B8381E48C8386E58D8382E58E8389E48F8383E5888780E589878FE54E
:20FA60008A8782E38B872BE030E0B9C18A81813941F0823941F0803911F48FE005C080E035
:20FA800003C082E001C08AE01A828B8344C09924939481C08D81882311F48EE12CC0813079
:20FAA00011F081E028C088E926C01A82E1E0F0E089E08093570084918B831C8224E030E0D0
:20FAC0008EC18B81803589F48C81883039F4E2E0F0E089E08093570084910DC0E0E0F0E0D0
:20FAE00089E080935700849106C0E3E0F0E089E08093570084911A82DFCF8D81836C99E01D
:20FB0000E1E0F0E0082E90935700E89507B600FCFDCF1A821B8223E030E061C11A82CE5C6E
:20FB2000DE4F188219821A821B82C253D14055C18A8190E0A0E0B0E0582F442733272227CE
:20FB40008B8190E0A0E0B0E0DC0199278827282B392B4A2B5B2B8D8190E0A0E0B0E0282B3A
:20FB6000392B4A2B5B2B8C8190E0A0E0B0E0BA2FA92F982F8827282B392B4A2B5B2B220F7F
:20FB8000331F441F551FC05EDE4F288339834A835B83C052D1401A8220C19A812B818331C4
:20FBA00049F0C05EDE4F488159816A817B81C052D1408AC0CE5CDE4F488159816A817B81E9
:20FBC000C253D140403080EC580783E0680780E07807F0F483E0FA0160935B008093570019
:20FBE000E89507B600FCFDCFCE5CDE4F488159816A817B81C253D14040505F4F6F4F7F4F32
:20FC0000CE5CDE4F488359836A837B83C253D140C95CDE4F9883C753D140CA5CDE4F188250
:20FC2000C653D140022F10E0CA5CDE4F68817981C653D140062B172BC05EDE4F48815981B8
:20FC40006A817B81C052D140DE011B9631E08C9111962C9111971296C75CDE4F2883C95311
:20FC6000D140C85CDE4F1882C853D14090E0C85CDE4FE881F981C853D1408E2B9F2B0C01FC
:20FC8000FA0160935B0030935700E89511244E5F5F4F6F4F7F4F02501040C9F685E0C05E84
:20FCA000DE4FE880F9800A811B81C052D140F70100935B0080935700E89507B600FCFDCF9A
:20FCC00081E180935700E8951A82C05EDE4F488359836A837B83C052D1407FC0FA80C55C65
:20FCE000DE4FF882CB53D140C65CDE4F1882CA53D1408B81C82EDD24C65CDE4F08811981A2
:20FD0000CA53D140C02AD12A1A828981BE016D5F7F4F843121F59601C05EDE4FE880F98043
:20FD20000A811B81C052D1400BBFF70187919691DB018C9311969C936E5F7F4FD801C7016B
:20FD40000296A11DB11DC05EDE4F88839983AA83BB83C052D14022503040F1F636C0C05EA2
:20FD6000DE4F288139814A815B81C052D1400894C108D108760100E010E00894C11CD11C3E
:20FD80000894E11CF11C011D111DE20EF31E041F151F21BDBB27A52F942F832F82BD2F5F43
:20FDA0003F4F4F4F5F4FF89A80B5DB018D93BD012E153F054007510761F7C05EDE4F288374
:20FDC00039834A835B83C052D14096012D5F3F4FFB01108204C080EC8A8322E030E08BE19F
:20FDE0008093C6008091C00086FFFCCF8091C00080648093C000C15DDE4FF881CF52D1408B
:20FE0000F093C6008091C00086FFFCCF8091C00080648093C000432F3093C6008091C00024
:20FE200086FFFCCF8091C00080648093C000922F2093C6008091C00086FFFCCF8091C000BE
:20FE400080648093C0008EE08093C6008091C00086FFFCCF8091C00080648093C00065E1B5
:20FE6000C15DDE4FE880CF52D1406E2569276427FE01319610C090819093C6008091C0008E
:20FE800086FFFCCF31968091C00080648093C0006927215030402115310569F76093C600CD
:20FEA0008091C00086FFFCCF8091C00080648093C00085B1805885B9992081F4C15DDE4FD4
:20FEC0000881CF52D1400F5FC15DDE4F0883CF52D14090E0A0E0B0E00D949AF527982F98BB
:20FEE00080E090E020ED37E0F9013197F1F7019684369105C9F700008091C0008D7F8093CD
:20FF0000C00081E180935700E895EE27FF270994FFCF90E00D949AF597FB092E07260AD0C2
:20FF200077FD04D02ED006D000201AF4709561957F4F0895F6F7909581959F4F0895A1E2DB
:20FF40001A2EAA1BBB1BFD010DC0AA1FBB1FEE1FFF1FA217B307E407F50720F0A21BB30B40
:20FF6000E40BF50B661F771F881F991F1A9469F760957095809590959B01AC01BD01CF01FF
:20FF80000895AA1BBB1B51E107C0AA1FBB1FA617B70710F0A61BB70B881F991F5A95A9F7A1
:20FFA00080959095BC01CD010895F999FECF92BD81BDF89A992780B50895262FF999FECF1B
:1AFFC0001FBA92BD81BD20BD0FB6F894FA9AF99A0FBE01960895F894FFCF11
:00000001FF
