:200000000C9434000C9451000C9451000C9451000C9451000C9451000C9451000C94510075
:200020000C9451000C9451000C9451000C9437020C9449020C9451000C9451000C94510056
:200040000C9451000C941E040C9451000C9451000C9451000C9451000C9451000C94510047
:200060000C9451000C94510011241FBECFEFD8E0DEBFCDBF11E0A0E0B1E0ECE8FEE002C077
:2000800005900D92AA30B107D9F715E0AAE0B1E001C01D92A834B107E1F70E943D060C9459
:2000A00044070C9400008CB580648CBD8CB580688CBD249A1EBC08950DB407FEFDCF8EB56B
:2000C000089588E48093B800089584EA8093BC00ECEBF0E080818823ECF781E090E00895CE
:2000E0008093BB0084E88093BC00ECEBF0E080818823ECF781E090E0089584E98093BC0017
:2001000081E090E00895803521F484EC8093BC0003C084E88093BC00ECEBF0E08081882317
:20012000ECF78091BB0008959093C5008093C400E1ECF0E08081886180830895E0ECF0E0F1
:20014000908195FFFDCF8093C6000895CF93C82F85E40E949E008C2F0E949E00CF910895BE
:20016000FC01118210820895FC0121E030E090818181981711F020E030E0822F932F0895CF
:20018000FC01808190E0019660E072E00E941D079C01418150E081E090E02417350711F02A
:2001A00080E090E00895FC01808190E080509E4F2181821B910960E072E00E941D070895D9
:2001C000CF93DF93EB010E94D30040E052E04C1B5D0B21E030E08417950714F020E030E06D
:2001E000822F932FDF91CF9108950E94D3008095909580509E4F08950F931F93CF93DF93EE
:20020000EC018B010E94B400009749F48981C80FD11D8B81F801808380E090E002C081E071
:2002200090E0DF91CF911F910F9108950F931F93CF93DF93EC018B010E94B400009769F4A6
:200240008981FE01E80FF11D8381F801808389818F5F898380E090E002C081E090E0DF91B9
:20026000CF911F910F910895CF92DF92EF92FF920F931F93CF93DF936C017B01EA010E94AF
:20028000D3008C179D079CF01C161D069CF400E010E0B701600F711FC6010E9416010F5F5E
:2002A0001F4F0C171D07A9F780E090E005C081E090E002C080E090E0DF91CF911F910F91D1
:2002C000FF90EF90DF90CF9008950F931F93CF93DF93EC018B010E94D3008017910734F03C
:2002E0008981080F098380E090E002C081E090E0DF91CF911F910F910895CF93DF9300D08D
:2003000000D0CDB7DEB78091040190910501BE016F5F7F4F0E941601809104019091050166
:20032000BE016E5F7F4F0E9416018091040190910501BE016D5F7F4F0E9416018091040145
:2003400090910501BE016C5F7F4F0E941601809104019091050163E170E00E9465013B81D0
:2003600020E08C8190E0822B932B398120E04A8150E0242B352B4091080150910901240F39
:20038000351F47E0213D340750F4309309012093080128513C4F3093890020938800209140
:2003A000060130910701820F931F27E0813D920750F4909307018093060188519C4F90935C
:2003C0008B0080938A000F900F900F900F90DF91CF9108951F93CF93DF93EC01162F0E94B2
:2003E000C000009751F48881FE01E80FF11D13838F5F888380E090E002C081E090E0DF91F2
:20040000CF911F910895CF92DF92EF92FF920F931F93CF93DF936C01062F172FEA01BA0195
:200420000E94E0000097A9F01C161D06ACF4E02EF12E00E010E0F70161917F01C6010E9445
:20044000EA010F5F1F4F0C171D07A9F780E090E005C081E090E002C080E090E0DF91CF9126
:200460001F910F91FF90EF90DF90CF9008951F920F920FB60F9211248F939F9395B181E0CB
:20048000892785B99F918F910F900FBE0F901F9018951F920F920FB60F9211248F939F9376
:2004A00095B182E0892785B99F918F910F900FBE0F901F9018958091400190914101813089
:2004C000910531F18230910519F0009789F144C02EB580910E0190910F01FC01E05FFE4F41
:2004E00020832EB530910D01232720930D01E0910001F0910101E85DFE4F20812EBD8731D1
:20050000910551F59EB580910C0189278EBD24C08EB5E0910E01F0910F01E05FFE4F8083CC
:200520008EB590910D01892780930D011EBC14C0E0910001F0910101E85DFE4F80818EBDF7
:2005400080910E0190910F018731910529F49EB580910C0189278EBD80910E0190910F0122
:20056000019690930F0180930E0180910001909101010196909301018093000108950F934B
:200580001F93CF93DF930F92CDB7DEB719820091020110910301C8010E94D30088319105BA
:2005A00054F0C801BE016F5F7F4F0E94FC008981807F82608983809104019091050168E1B8
:2005C00070E00E94E000009719F489818460898389810F90DF91CF911F910F9108951092A3
:2005E0000C018091400190914101019782309105F0F48EB5E0910E01F0910F01E05FFE4F95
:2006000080839EB580910D01892780930D01882359F4809104019091050160E171E048E1A4
:2006200050E00E94030203C088E080930C010E94BF0290910C01892B80930C018EBD109246
:200640000F0110920E0181E090E090930101809300010895CF93DF9310920D0180910C0190
:200660000EB403FE39C080914001909141018230910511F0009701F5C0912801C260C09344
:200680000C01809104019091050168E170E00E94E000009719F4C460C0930C0180910C01AF
:2006A0008EBD81E090E0909301018093000110920F0110920E01BFC081E090E0909301010D
:2006C0008093000110920F0110920E010E94BF0280930C018EBDAFC083FF10C00E94BF02B1
:2006E00080930C018EBD81E090E0909301018093000110920F0110920E019DC086709EB57C
:20070000907FC9F5823051F0833018F4882369F192C0843051F1863009F08DC0C8E2D1E0B6
:200720008091020190910301BE0148E150E00E9434018091000190910101C80FD91F2881E4
:200740002EBD20910E0130910F012F5F3F4F30930F0120930E01019690930101809300019C
:20076000109241011092400166C00E94BF0280930C018EBD60C0823061F0833018F4882331
:20078000E1F159C0843009F451C0863009F053C04DC08EB5E0910E01F0910F01E05FFE4FFD
:2007A00080838EB580930D01C8E2D1E08091020190910301BE0148E150E00E94340180913E
:2007C000000190910101C80FD91F28812EBD20910E0130910F012F5F3F4F30930F0120935F
:2007E0000E010196909301018093000182E090E090934101809340011EC02EB580910E01AE
:2008000090910F01FC01E05FFE4F20832EB520930D011EBC019690930F0180930E0181E0B0
:2008200090E0909341018093400105C00E94BF0280930C018EBDDF91CF9108951F920F923D
:200840000FB60F9211242F933F934F935F936F937F938F939F93AF93BF93EF93FF93809174
:200860000E0190910F01009719F40E942A0309C001978631910518F40E945B0202C00E94A8
:20088000EF02FF91EF91BF91AF919F918F917F916F915F914F913F912F910F900FBE0F90FC
:2008A0001F9018950F931F9318B821E030E030930B0120930A01E0E0F0E068E02AC0AF01A8
:2008C00068B90FEF16E121E1015010402040E1F700C0000018B80FEF16E121E101501040FF
:2008E0002040E1F700C000004F5F5F4F4817590739F72FEF3CEB4FE1215030404040E1F707
:2009000000C0000040910A0150910B014115510521F0181619069CF2ECCF1F910F9108950E
:20092000CF92DF92EF92FF920F931F93CF93DF938C01D0900801E0900901C0900601F09064
:200940000701C0910201D0910301CE010E94F50088319105B4F3CE0160E40E94EA01F801E1
:20096000108280910201909103016E2D0E94EA01F8018081E826E0828091020190910301E1
:200980006D2D0E94EA01F8018081D826D08280910201909103016F2D0E94EA01F80180818A
:2009A0008F25808380910201909103016C2D0E94EA01F8018081F826F082C2E1D0E0809133
:2009C00002019091030160E00E94EA012197B9F78091020190910301F80160810E94EA011A
:2009E000809104019091050167E170E00E946501DF91CF911F910F91FF90EF90DF90CF901E
:200A00000895CF93DF9300D000D0CDB7DEB78091040190910501BE016F5F7F4F0E9416015B
:200A20008091040190910501BE016E5F7F4F0E9416018091040190910501BE016D5F7F4FD0
:200A40000E9416018091040190910501BE016C5F7F4F0E941601809104019091050163E10E
:200A600070E00E946501998180E02A8130E0282B392B9B8180E04C8150E0842B952B47E023
:200A8000213D340750F4309309012093080128513C4F309389002093880027E0813D920707
:200AA00050F4909307018093060188519C4F90938B0080938A000F900F900F900F90DF91B2
:200AC000CF910895AF92BF92CF92DF92EF92FF920F931F93CF93DF938C0188E00E9465007F
:200AE00082E368E10E94700080E568E20E9470000E947D008FEE90E00197F1F700C0000029
:200B000088E00E94650083E360E40E947000EFEEF0E03197F1F700C0000080E50E94830003
:200B2000F82E8FEE90E00197F1F700C0000080E50E948300E82EEFEEF0E03197F1F700C0A5
:200B4000000080E50E948300D82E8FEE90E00197F1F700C0000080E50E948300C82EEFEE7B
:200B6000F0E03197F1F700C0000080E50E948300B82E8FEE90E00197F1F700C0000088E52B
:200B80000E948300A82E0E947D00C0910201D0910301CE010E94F50088319105B4F3CE0157
:200BA00060E30E94EA01F801108280910201909103016F2D0E94EA01F8018081F826F082EE
:200BC00080910201909103016E2D0E94EA01F8018081E826E08280910201909103016D2D77
:200BE0000E94EA01F8018081D826D08280910201909103016C2D0E94EA01F8018081C826D7
:200C0000C08280910201909103016B2D0E94EA01F8018081B826B0828091020190910301F1
:200C20006A2D0E94EA01F8018081A826A082C0E1D0E0809102019091030160E00E94EA014F
:200C40002197B9F78091020190910301F80160810E94EA01809104019091050167E170E0B7
:200C60000E946501DF91CF911F910F91FF90EF90DF90CF90BF90AF900895CF93DF9300D0A1
:200C80000F92CDB7DEB780E090E00E94530087E690E00E9494000E94610080910401909188
:200CA00005010E94B00080910201909103010E94B000389A3B9A219A88EA91E6909387005C
:200CC0008093860010928000E1E8F0E0808182618083809108019091090188519C4F9093AD
:200CE000890080938800809106019091070188519C4F90938B0080938A00EFE6F0E08081DA
:200D00008660808385B18C7F85B910920C011EBC789419821A820F2EF6E1EF2EFF24F02D2E
:200D20001B820091040110910501C8010E94D30088319105ACF3C801BE016F5F7F4F0E94E7
:200D400016018981817F8983803309F454C0813370F4813129F1823120F4803109F064C029
:200D600016C0803231F1813209F05EC02BC0803409F44FC0813420F4813309F055C040C0C9
:200D8000813409F44BC0813509F04EC04AC0809104019091050167E170E00E946501C0CF63
:200DA000809104019091050167E170E00E946501B7CF809104019091050167E170E00E9459
:200DC0006501AECF87018091040190910501BE016E5F7F4F0E9416018A810E949E000150BC
:200DE000104089F7809104019091050161E070E00E94650195CFCE0103960E94620590CF19
:200E0000809104019091050167E170E00E94650187CFCE0103960E94900482CF0E94010508
:200E20007FCF0E947D017CCF809104019091050167E170E00E94650173CF97FB092E0726E4
:200E40000AD077FD04D00CD006D000201AF4709561957F4F0895F6F7909581959F4F089577
:200E6000AA1BBB1B51E107C0AA1FBB1FA617B70710F0A61BB70B881F991F5A95A9F780953A
:160E80009095BC01CD010895F894FFCF010045034201F401C20171
:00000001FF
